:100000000080001035050000650500006705000050
:10001000690500006B0500006D0500000000000090
:100020000000000000000000000000006F0500005C
:100030007105000000000000730500007505000058
:1000400077050000770500007705000077050000C0
:1000500077050000770500007705000077050000B0
:1000600077050000770500007705000077050000A0
:100070007705000077050000770500007705000090
:100080007705000077050000770500007705000080
:100090007705000077050000770500007705000070
:1000A0007705000077050000770500007705000060
:1000B0007705000077050000770500007705000050
:1000C00077050000770500007705000010B5054CA6
:1000D000237833B9044B13B10448AFF300800123F4
:1000E000237010BD880A001000000000006E0000A0
:1000F000084B10B51BB108490848AFF30080084809
:10010000036803B910BD074B002BFBD0BDE81040BE
:10011000184700BF000000008C0A0010006E0000AD
:10012000880A001000000000154B002B08BF134B7D
:100130009D46A3F5803A00218B460F461348144A8A
:10014000121A01F0D3FA0F4B002B00D098470E4B38
:10015000002B00D098470020002104000D000D481E
:10016000002802D00C4801F033FC01F0CBF920004C
:10017000290000F094F901F039F800BF00000800F0
:10018000008000100000000093040000880A0010A6
:10019000000D0010D1190000851A00000F4D08B5A0
:1001A0002C462B68013304D124220D490D4800F060
:1001B000B7FDE36862680C481A6000F0CFFE236860
:1001C000013304D124220649064800F0A9FD236921
:1001D000626805481A6000F0C1FEE2E7A40A001058
:1001E0004866000086660000CDCC4C3E10B5064C3B
:1001F00000212046182201F079FA2046BDE810407F
:10020000024900F03CBE00BFA40A001032C0092021
:1002100010B50C4CA268A4681346B4F1805F0CD2F0
:10022000131F094A53F8044F42F8044F074CA242E7
:10023000F8D1044A4FF080539360103043F82010F7
:1002400010BD00BF00ED00E0FCFFFF0FC00000107C
:1002500038B50368044601330D4604D10548064904
:10026000242200F05DFD63680DB1E26800E02269C0
:10027000136038BD866600009E66000000B599B028
:1002800000F072FD68461B4900F0F9FD06A81A4906
:1002900000F0F5FD0CA8194900F0F1FD12A818496D
:1002A00000F0EDFD68460121FFF7D2FF06A800210E
:1002B000FFF7CEFF0CA80021FFF7CAFF12A801210B
:1002C000FFF7C6FF962000F055FE68460021FFF7B5
:1002D000BFFF06A80121FFF7BBFF0CA80121FFF714
:1002E000B7FF12A80021FFF7B3FF962000F042FEEF
:1002F000D8E700BF32C0092034C0092035C009202A
:1003000037C0092030B505460C46A1B000F02CFDE1
:1003100029466846224601F0C3FA051E03DC00F0B8
:100320004DFD21B030BD094B1B6823B90848094970
:10033000094A00F03FFC00241DF804100448013471
:1003400000F09CFBAC42F7D1E9E700BFC40B001002
:10035000F40C001002C0092003C009200FB407B537
:1003600004A951F8040B0191FFF7CCFF03B05DF82D
:1003700004EB04B07047000008B5084B1B685BB97C
:1003800007480849084A00F015FC05484FF4165183
:10039000BDE8084000F0FCB908BD00BFC40B001068
:1003A000F40C001002C0092003C0092002284FF0FD
:1003B000000309DD0749C21E51F8220041F822302E
:1003C00020B103685B681847184670474FF0FF304C
:1003D000704700BFC00A0010022870B50C461546D1
:1003E0000FDC0E4B1B680BB9FFF7C6FF6619B44252
:1003F00005D00B4814F8011B00F040FBF7E7284636
:1004000070BD084B033853F8200020B1BDE87040A0
:1004100003681B6818474FF0FF3070BDC40B001015
:10042000F40C0010C00A0010022810B50C460ADCBB
:100430000B4B1B680BB9FFF79FFF0A4800F0DAFA75
:100440002070012010BD084B033853F8200020B164
:10045000BDE8104003689B6818474FF0FF3010BD9F
:10046000C40B0010F40C0010C00A0010022807DDB5
:10047000064B033853F8200020B103681B69184766
:10048000002070474FF0FF30704700BFC00A0010D7
:10049000704708B5FFF7FCFF08BD7047704708B507
:1004A000FFF7FCFFFFF7F9FFBDE80840FFF776BE56
:1004B0000C4A10B513681844EFF30881884205D33D
:1004C000094B0C221A604FF0FF3010BD0749096834
:1004D00021B1074C246821448842F1D210601846AB
:1004E00010BD00BFC8000010FC0C0010BC0A0010BA
:1004F000C00B0010094C08B523680546986800F049
:100500003FFF2368D86800F03BFF00F0BBFC08B158
:1005100000F004FD0DB1FFF7B1FEFEE7F804001096
:100520007047704708B5FFF7FBFF08BD08B5FFF738
:10053000F8FF08BD0649074A074B9A42BEBF51F86B
:10054000040B42F8040BF8E70448804704480047CE
:100550000C6E0000C8000010880A00107905000029
:1005600029010000FEE7FEE7FEE7FEE7FEE7FEE703
:10057000FEE7FEE7FEE7FEE7264B2022C3F8A021B8
:10058000D3F8A021900603D5D3F8A0215106FBD5BE
:100590000222C3F804210022C3F8A8210120C3F8D5
:1005A000AC210B22C3F80C01AA21C3F884205522E8
:1005B000C3F88C10C3F88C20C3F88000C3F88C10EB
:1005C000C3F88C20134BD3F888205201FAD50322AC
:1005D000C3F88020AA22C3F88C205522C3F88C20AF
:1005E000D3F888100B4A11F0407FF9D00523C2F8E8
:1005F0000831094BC2F8C4300023C2F8C83113686F
:1006000023F4704323F03A0343F4405343F03A0396
:100610001360704700C00F40DE872804012810B522
:1006200002D0022811D010BD034638225143114890
:1006300042184058E8B113B992F83620CAB1BDE863
:1006400010400D4A1946126810470A48382303FB28
:1006500001035868013005D018699C68046093F85C
:1006600036300BB10023E0E7506820F00100506005
:10067000DBE710BDCC0B0010C80B0010034A0021B3
:100680009068C0F34200FFF7C9BF00BF00C0004040
:10069000034A01219068C0F34200FFF7BFBF00BFCB
:1006A00000000140034A02219068C0F34200FFF7B6
:1006B000B5BF00BF00800940034A03219068C0F322
:1006C0004200FFF7ABBF00BF00C0094070B5284B28
:1006D00004689C4211D006DCA3F580439C4212D1F1
:1006E000244D052311E0244B9C4209D003F580439F
:1006F0009C4208D1214D082307E0214D062304E048
:10070000204D072301E000252B4672B162680126C7
:1007100006FA01F10A4362605CB220462946FFF7FF
:1007200077FD194BA6401E6070BD01290AD04568AF
:10073000164A382606FB052292F836503032527996
:10074000D54213D1012202FA01F6B1FA81F16568AE
:10075000490925EA06056560006802FA01F140686A
:10076000014202BF9A40084BC3F8802070BD00BF11
:10077000000001407D06000000800940B90600002D
:1007800091060000A506000000E100E0CC0B00107F
:100790002DE9F04F0268734B8DB09A4206460F4622
:1007A00004DD714871499B2200F0BAFA3368704A3F
:1007B000934223D00FDCA2F58042934239D16D4B96
:1007C000D3F8A82122F0C002C3F8A821D3F8A821A9
:1007D00042F040021DE0684A93421DD002F580427B
:1007E000934226D1634BD3F8AC2122F44022C3F8C4
:1007F000AC21D3F8AC2142F4802218E05D4BD3F851
:10080000A82122F44072C3F8A821D3F8A82142F409
:100810008072C3F8A8210CE0564BD3F8AC2122F427
:100820004032C3F8AC21D3F8AC2142F48032C3F893
:10083000AC21524B3D01D3F800B0BBFBF5F305FBF7
:1008400013B51FFA83F9002D53D04FEA4B030593DC
:100850004FF0010A4FEA8B03069303935346059A20
:100860000197CDF808B00497002501995FFA8AFC3A
:100870004FF00008002A5FFA88F00790ABBF03989A
:10088000B2FBF1F4B0FBF1F42409A8BF6409013410
:10089000C4F34F04002C49D0B8F1000F02D0012C52
:1008A00098BF022408EB0A0060430893029BC00033
:1008B000B3FBF0F00130C7EB5000CDF82CC00A912B
:1008C000099200F08FFC049B099A98420A99089BB0
:1008D000DDF82CC005DAB8422ED06346A146079D4C
:1008E000049008F101085FFA88F060453944C1D3EB
:1008F00026E00123316845EA03150A7BEDB242F098
:1009000080020A733268C9F30721117132685FFAF5
:1009100089F982F80090326882F828503268137B97
:1009200003F07F0313730DB0BDE8F08FB8F1000F33
:1009300014BF02240124B5E76346079DA146D9E709
:10094000BAF10F0FD6D00299069859440291059931
:100950000AF1010A0A4403990144039101993944B7
:10096000019182E700C009409C670000B567000064
:100970000000014000C00F4000800940CC00001082
:10098000F8B55E1E012E07460C46154604D91448DC
:100990001449FB2200F0C4F9053C032C04D9124889
:1009A0001049FC2200F0BCF9042D04D90F480D4970
:1009B000FE2200F0B5F9013DEDB2032D87BF002204
:1009C00011460B4B012198BF5A5744EA860343EA6C
:1009D000C104386844EA0214E4B20473F8BD00BFED
:1009E00016680000B56700003B6800005E68000004
:1009F000F2680000024610B501680B7DDB07FCD5EC
:100A00000B785268D8B2084B382404FB02335A687A
:100A100001321FBF5A699B6813604B681CBF43F0CB
:100A200001034B6010BD00BFCC0B00104268124B9D
:100A3000382101FB0233D96903F11802013109D0D1
:100A40001B6B19689368194214D10368187DC0F3B1
:100A50008010704702683033127D12F0200F03D0EF
:100A600000221A710120704718790F288CBF0020CE
:100A70000120704700207047CC0B001038B50446A9
:100A80000D462046FFF7D2FF0028FAD02368EDB2CA
:100A90001D706268044B382101FB023393F8342047
:100AA000013283F8342038BDCC0B00102DE9F84F0B
:100AB0009A463C4C03680546A34218BF002488466A
:100AC000914647681CB1237C03F03F032374364EE4
:100AD000382202FB07634FF0FF31D96159606B6820
:100AE000002102FB0363284683F835100A46FFF70E
:100AF000EDFDB8F1000F52D02C49484600F0F2F954
:100B00002B498346504600F0EDF9A8F10203012B72
:100B100017D8BAF1FF3F3FD0224B984209D144B1D8
:100B2000237C504643F080032374214900F0ACF944
:100B300032E0382000FB076051461C3000F085F998
:100B40002AE0B8F1010F2AD1B9F1FF3F27D02B6875
:100B500007221A72134B9B450AD14CB1237C48469D
:100B600043F0400323741149BDE8F84F00F08CB9FD
:100B7000382404FB076049460430002200F068F97D
:100B80006B68012204FB036686F835202846BDE821
:100B9000F84F0021FFF79ABDB8F1030FD3E7BDE886
:100BA000F88F00BF00000140CC0B00100C67000064
:100BB000646900002DE9F84305460F4608464D4993
:100BC000164600F09BF94C490446304600F096F971
:100BD0000146204600F074F9411C044604D1474800
:100BE00047495C2200F09CF8464B2C609C4217D091
:100BF00009D8A3F580439C421FD1434AD2F8C430A0
:100C000043F0080317E0414B9C420FD003F58043AB
:100C10009C4212D13C4AD2F8C43043F000730AE03F
:100C2000394AD2F8C43043F0100304E0364AD2F80F
:100C3000C43043F08073C2F8C4304FF0010984F827
:100C400008902B684FF00008C3F8048028464FF442
:100C50001651FFF79DFD42464B4628460821FFF7F7
:100C60008FFE3846234900F00FF93046224900F044
:100C70000BF97A1C03D03846414600F0F9F9731C91
:100C800003D03046002100F0F3F91E4B9C420FD0F8
:100C900005D8A3F580439C420ED100230BE01B4BEB
:100CA0009C4207D003F580439C4205D1032302E018
:100CB000012300E002236B606A68154B382101FBB9
:100CC00002334FF0FF325A60DA61284613460021A2
:100CD000FFF7ECFE0F4B9C4209D10F4B01221A602B
:100CE0002946BDE8F8430D48082200F089BCBDE85C
:100CF000F88300BFF868000030670000E268000079
:100D0000B56700000000014000C00F4000800940AE
:100D1000CC0B001000C00040C40B0010F40C0010FD
:100D200070B506460D46144600F01EF831462A46B8
:100D300023460348FFF712FBBDE87040FFF79EBA59
:100D4000886900000FB407B504A951F8040B01919C
:100D5000FFF7D8FA012000F049FAEFF3108000F015
:100D6000010080F00100704738B5FFF7F6FF80F012
:100D70000100C5B272B60C4C23680BB90B4B1D7049
:100D80002368013304D10A480A493222FFF7C8FF19
:100D900023682BB125B9084806493622FFF7C0FF62
:100DA00023680133236038BDAC0C0010B00C001078
:100DB000B9690000DF690000246A000010B50A4C20
:100DC000236883B1FFF7C9FF20B1084808494722CB
:100DD000FFF7A6FF2368013B236023681BB9054B7F
:100DE0001B7803B962B610BDAC0C0010246A000079
:100DF000DF690000B00C001038B503680446013309
:100E00000D4604D1054806492422FFF789FF63688F
:100E10000DB1E26800E02269136038BD866600000B
:100E20009E66000070B50E460446154600F0BEF8FA
:100E3000013609D02046002100F0D2F8204629468C
:100E4000BDE8704000F0C9B870BD0322FFF7EABFEB
:100E500070B50E460446154600F0A8F801360DD0D0
:100E600020462946FFF7C8FF2046012100F0B8F8C8
:100E70002046BDE87040022100F0AFB870BD0022EE
:100E8000FFF7E6BF00F056B810B50446013001D1B7
:100E900010BD0C310B685A1C0BD0A342F9D120466F
:100EA000896800F0BDF82046BDE81040022100F03E
:100EB000DFB80248BDE81040FFF744BF386A0000C1
:100EC000884208B50AD0431C07D0013106D0044837
:100ED000FFF738FF4FF0FF3008BD084608BD00BFE0
:100EE000496A00000B685A1C05D0834201D148684A
:100EF00070470C31F6E7184670470000421C10B5E9
:100F0000044607D0FFF7EEFF431C044602D1024817
:100F1000FFF718FF204610BD5A6A000030B585B0B3
:100F20006D46182420462946ABBE0446204605B02F
:100F300030BD0000024B186800F00100704700BF90
:100F4000F0ED00E038B5044600F0FCF8054600F08E
:100F5000F9F8401BA042FAD338BD000008B5044997
:100F600004F04AFA04F098FBBDE80840FFF7EABF36
:100F7000002474494FF47A735843FFF7E3BF00002D
:100F8000431C10B5044604D1064807491522FFF753
:100F9000C7FE2046002100F043F804F01F040120A2
:100FA000A04010BD8B660000986A000038B5054669
:100FB0004B1C0C4629600FD00846FFF7E1FF24F0D8
:100FC0001F0404F11803EB6004F11C032B6104F10E
:100FD000140368606B61AC6038BD006800F048B80D
:100FE00038B50368044601330D4604D10A480B495D
:100FF0002C22FFF795FE15B1012D06D038BDA26851
:101000006168136823EA010303E0A268636811685A
:101010000B43136038BD00BF86660000986A00006D
:1010200038B5431C04460D4604D10F480F4915221C
:10103000FFF776FE04F16040A0F51C2003099B0039
:1010400003F1804303F5303300F00F0252001868BB
:101050000321914020EA010119601868954045EA92
:101060000001196038BD00BF8B660000F76A000000
:1010700038B5431C05460C4604D1184818492022AF
:10108000FFF74EFE05F16040A0F51C2043099B00D0
:1010900003F1804303F530339D6EC4F3800200F00A
:1010A0001F0102FA01F125EA01059D669D6E2943A3
:1010B000996692B903099B0003F1804303F530332D
:1010C00000F00F025200186C0321914020EA010148
:1010D0001964196C94400C431C6438BD8B66000085
:1010E000F76A000008B5114B1868E8B9104A0121E9
:1010F0001960D2F8C43043F40003C2F8C430A2F53A
:10110000D0220C4B10671B68022050600A489B08D5
:10111000B3FBF0F3013BD360042051600749FFF7B4
:1011200077F8074B10221A6008BD00BFB40C0010FE
:1011300000C00F40CC00001040420F009111000091
:1011400000E100E008B5044B1B680BB9FFF7CAFFCC
:10115000024B986808BD00BFB40C00100040094065
:10116000034B98615A6942F001025A61704700BF0F
:1011700000400940024A536923F00103536170475C
:1011800000400940014B01221A60704700400940AD
:10119000014800F003B800BF686B0000036870B539
:1011A000DB680446984763685A6823681AB99B68E5
:1011B000BDE8704018475B6815689847281A0028F2
:1011C000636808DC5A68916859601B68002BEAD094
:1011D00050689847E7E721685A68BDE870400B6996
:1011E000106818470028B8BF4042704708B5002172
:1011F000044600F081FB044B1868C36B03B19847A9
:101200002046FFF777F900BF706B0000B1F90C3092
:101210002DE9F0419AB20D46110780463CD46A6828
:1012200043F40063002AAB8173DDAC6A002C4BD021
:101230009BB203F48052002192B2D8F80060C8F843
:101240000010002A69D02A6D5F0705D569682B6BED
:10125000521A0BB1EB6BD21A0023E9694046A04742
:10126000441C3CD0B5F90C30296923F400630022FA
:10127000AB81DB0485E8060049D4296BC8F800601F
:1012800011B305F14003994202D0404604F0BEFB81
:1012900000202863BDE8F0812E69AEB190072C686C
:1012A0000CBF6B6900232E60A41BAB600AE02346D1
:1012B00032466F6AE9694046B8470028A4EB00044B
:1012C000064404DD002CF2DC0020BDE8F081AB898F
:1012D0004FF0FF3043F04003AB81BDE8F081D8F818
:1012E00000201D2AF3D81A4BD34003F0010383F0EA
:1012F0000104002BEBD0B5F90C30296923F400630D
:101300002960D9046C60AB81B7D5002AB5D12865B6
:10131000B3E7EA6B002A88DCD6E70123E969404697
:10132000A047431C024602D0AB89AC6A8CE7D8F8D0
:101330000030002BF8D01D2B01D0162B02D1C8F89D
:101340000060C1E7AB8943F04003AB81BDE8F081A9
:101350000100402010B5044682B008B1836B53B140
:10136000B1F90C0008B902B010BD204602B0BDE8CA
:101370001040FFF74BBF019100F092F80199EFE7A1
:1013800020B1054B01461868FFF7E4BF034B044941
:10139000186800F08FB800BFF8040010706B0000F0
:1013A00055130000014900F085B800BF011A000084
:1013B0002DE9F04F074635487D68002407F53B725C
:1013C00004230321F863C7F8E412C7F8E822C7F83A
:1013D000E04283B02C606C60AC606C66EC812C6188
:1013E0006C61AC61AB81214605F15C00082200F024
:1013F0007DF9DFF89CB0BE68DFF898A0DFF8989020
:10140000DFF8988001230922C5F820B0C5F824A090
:10141000C5F82890C5F82C80ED612146F381B28192
:1014200006F15C0034607460B460746634617461A9
:10143000B4610822019300F059F9FD6812200222DC
:10144000F661C6F820B0C6F824A0C6F82890C6F801
:101450002C802146A881EA812C606C60AC606C66AF
:101460002C616C61AC6105F15C00082200F03EF972
:10147000019BED61C5F820B0C5F824A0C5F82890FF
:10148000C5F82C80BB6303B0BDE8F08FA513000046
:1014900089170000AD170000E917000009180000C7
:1014A000836B03B17047FFF783BF00BF704700BF76
:1014B000704700BF2DE9F84310F538761ED08846F6
:1014C00007464FF000097568B468013D10D4A38940
:1014D000013D012B08D9B4F90E30013304D0214667
:1014E0003846C04749EA00096B1C04F16804EED194
:1014F0003668002EE7D14846BDE8F883B146484635
:10150000BDE8F88370B50F4E0F4D761BB61018BFAF
:10151000002405D0013455F8043B9847A642F9D180
:101520000A4E0B4D05F084F8761BB61018BF002448
:1015300006D0013455F8043B9847A642F9D170BD56
:1015400070BD00BF780A0010780A0010840A0010ED
:10155000780A0010024B0146186804F053BA00BF25
:10156000F8040010024B0146186804F04FBA00BF9F
:10157000F8040010830770B4CDB23DD0531E02B3FF
:101580000278AA421ED0421C04E0D3B10478013B89
:10159000AC4217D012F0030F104602F10102F4D151
:1015A000032B11D853B30278AA420BD00344421C38
:1015B00002E00178A94205D09342104602F10102EF
:1015C000F7D1002070BC704704460E0206F47F4637
:1015D0002E4346EA0646226820467240A2F10131B7
:1015E00021EA020212F0803F04F10404DBD1043B43
:1015F000032B2046EFD8D5E71346D1E71846E1E79D
:10160000844641EA000313F0030349D1403A23D34F
:101610000B6803604B6843608B688360CB68C36072
:101620000B6903614B6943618B698361CB69C3615A
:101630000B6A03624B6A43628B6A8362CB6AC36242
:101640000B6B03634B6B43638B6B8363CB6BC3632A
:1016500040304031403ADBD230320BD30B6803606C
:101660004B6843608B688360CB68C3601030103177
:10167000103AF3D20C3205D351F8043B40F8043B46
:10168000043AF9D2043208D0D2071CBF11F8013B4A
:1016900000F8013B01D30B8803806046704700BF10
:1016A000082A13D38B07B1D010F00303AED0C3F1D7
:1016B0000403D21ADB071CBF11F8013B00F8013B01
:1016C000A4D331F8023B20F8023B9FE7043AD9D378
:1016D000013A11F8013B00F8013BF9D20B78037095
:1016E0004B7843708B7883706046704770B4840782
:1016F00046D0541E002A41D0CDB2034602E0621EFD
:10170000E4B3144603F8015B9A07F8D1032C2ED9F1
:10171000CDB245EA05250F2C45EA054519D92646DF
:1017200003F11002103E0F2E42F8105C42F80C5CE0
:1017300042F8085C42F8045C02F11002F2D8A4F10D
:10174000100222F00F0204F00F041032032C134495
:101750000DD91E462246043A032A46F8045BFAD8FD
:10176000221F22F003020432134404F003042CB1BC
:10177000C9B21C4403F8011BA342FBD170BC7047E3
:1017800014460346C2E700BF10B50C46B1F90E106F
:1017900000F0C6F9002803DB236D0344236510BD68
:1017A000A38923F48053A38110BD00BF2DE9F0412C
:1017B0000C46B1F90C101F46CB051646054607D559
:1017C000B4F90E100223002200F07EF9B4F90C10D7
:1017D00021F48051A1813B463246B4F90E102846CF
:1017E000BDE8F04100F068B810B50C46B1F90E1034
:1017F00000F06AF9A389421C0EBF23F4805343F41E
:1018000080532065A38110BDB1F90E1000F0E6B839
:1018100020F0030110F00300C0F1000051F8043B78
:1018200000F1040C4FEACC0C6FF000021CBF22FA4E
:101830000CF213434FF0010C4CEA0C2C4CEA0C4C0C
:10184000A3EB0C0222EA030212EACC1204BF51F805
:10185000043B0430F4D0C2F1000102EA0102B2FA02
:1018600082F2C2F11F0200EBD2007047F0B50D46C4
:101870004FF6FF779BB06FF000444FF40276694655
:1018800000950495ADF80E70ADF80C6002940594C7
:1018900000F05CF9009B00221A701BB0F0BD00BF85
:1018A00010B4044C13460A460146206810BCFFF7EA
:1018B000DDBF00BFF804001070B50D46084C11469E
:1018C00006461A46284600232360FEF785FD431C82
:1018D00000D070BD2368002BFBD0336070BD00BF0B
:1018E000FC0C0010024B13B1024800F071B87047B5
:1018F00000000000851A00002DE9F04F0E46324B23
:1019000085B01B680190029303F5A4730393029BB7
:10191000D3F848713FB3DDF80CA04FF00109D3466E
:101920007C68651E0ED4013407EB84044FF0000878
:10193000E6B1D4F800319E4218D0013D6B1CA4F1F1
:101940000404F5D1214B73B17B68002B36D13B6881
:10195000002B34D03846CBF80030FFF703FEDBF81D
:101960000070002FDCD105B0BDE8F08F7B682268E5
:10197000013BAB420CBF7D60C4F80080002ADCD084
:10198000D7F8881109FA05F30B42D7F804A00FD055
:10199000D7F88C110B420DD1D4F8801001989047E4
:1019A0007B685345B3D1DBF80030BB42C5D0AEE70E
:1019B0009047F5E7D4F880009047F1E73B68BB46D5
:1019C0001F46002FACD1CEE7706B000065150000FC
:1019D000002301461A46184601F076BC38B5074C7C
:1019E0000023054608462360FEF7E0FC431C00D0B8
:1019F00038BD2368002BFBD02B6038BDFC0C0010D9
:101A000000293DD070B505460C4608B1836B7BB309
:101A1000B4F90C300BB9002070BD21462846FFF701
:101A2000F5FBE36A064633B1E1692846984700288A
:101A3000B8BF4FF0FF36A3891B061CD4216B41B100
:101A400004F14003994202D0284603F0DFFF00234F
:101A50002363616C21B1284603F0D8FF002363643F
:101A6000FFF724FD0023A381FFF722FD304670BD60
:101A7000FFF716FDCCE72169284603F0C7FFDDE735
:101A80000020704738B5074D074C2C1BA41005D01B
:101A9000013C55F8043D9847002CF9D1BDE8384089
:101AA00004F0CCBD880A0010840A0010044A054BDB
:101AB0001268506B002808BF1846F030704700BF0E
:101AC000F8040010FC04001070B50D46084C1146D7
:101AD00006461A46284600232360FEF7C7FC431C2F
:101AE00000D070BD2368002BFBD0336070BD00BFF9
:101AF000FC0C001082B049B15AB16BB113780B6085
:101B00001278101C18BF012002B0704701A9002AEA
:101B1000F3D1104602B070476FF00100F4E700BF48
:101B200070B50D46084C114606461A462846002355
:101B30002360FEF779FC431C00D070BD2368002BA6
:101B4000FBD0336070BD00BFFC0C00102DE9F04FDE
:101B5000C1B00C46099115460E930A90FFF7A6FFF7
:101B6000036818461793FFF753FEA38916901E06C5
:101B700003D52369002B01F05C8100231A46A84697
:101B80000DF1C009DFF860A4129319930B9325930C
:101B90002493CDF88C901492159298F80030444616
:101BA000EBB1252B02D11AE0252B03D014F8013F0D
:101BB000002BF9D1C8EB04058DB1249B259A013384
:101BC0002A44072BC9F80080C9F8045025922493B1
:101BD00000F3328309F108090B9B2B440B93237804
:101BE000002B00F0EA814FF0FF3B5D4600231A46D0
:101BF0008DF86F3019460C930793637804F1010850
:101C000008F10108A3F12000582800F24586DFE81A
:101C100010F0F30343064306FC0343064306430662
:101C20004306430643065900040443066600D003F6
:101C30004306EC03BC05BC05BC05BC05BC05BC05E6
:101C4000BC05BC05BC0543064306430643064306E4
:101C500043064306430643064306E205F7044306EC
:101C6000F70443064306430643064205430643067C
:101C70004A054306430643064306430674054306E6
:101C80004306CD0543064306430643064306430683
:101C900043064306430643061D060E06F704F704F3
:101CA000F70415060E0643064306A3044306A805DB
:101CB000AE046D000A0443061204430635044306CD
:101CC000430670040E9C236818460C932346002894
:101CD00003F104030E9306DA0C9B5B420C93079B03
:101CE00043F00403079398F8003089E7AB460E9A57
:101CF0000027079830217823BB4514688DF87010B1
:101D000002F104024FF000058DF871308DF86F700C
:101D100040F00201C0F23D8620F0800141F0020156
:101D2000079154EA05010E921193AD4800F03181FC
:101D300030AE230943EA0573290904F00F020D466A
:101D40001C46835C06F8013D54EA0503F1D130AB33
:101D50009B1B0D930D9B5B45B8BF5B46089300230F
:101D6000139317B1089B01330893079B13F00203E9
:101D70000F9302D0089B02330893079B13F0840350
:101D8000109340F018810C9B089A9D1A002D40F387
:101D90001281102D2599249A924F27DD18964846D6
:101DA0001024B946099E2F460A9D04E0103F102FCB
:101DB00000F1080016DD01328A4B1031072A259107
:101DC000249280E81800F1DD23AA3146284602F06B
:101DD0009FFD002840F0F880103F102F30A8259973
:101DE000249AE8DC3D464F468146189E01326C1825
:101DF000072A25942492C9F80070C9F8045000F30A
:101E0000D0809DF86F7009F1080977B1249B0134E7
:101E100001330DF16F010122072B2594249389E8EA
:101E2000060000F3208209F108090F9B6BB1249B87
:101E3000023401331CA90222072B2594249389E83C
:101E4000060000F31C8209F10809109B802B00F0AA
:101E50002C810D9BC3EB0B07002F33DD624A102F43
:101E6000249B0F9222DD22464FF0100B0A9D099C05
:101E700004E0103F102F09F1080916DD013310327C
:101E8000072B2592249389E8000CF2DD23AA214632
:101E9000284602F03DFD002840F09680103F102FAC
:101EA0000DF1C009259A249BE8DC144601330F9AF2
:101EB0003C44072B2594249389E8840000F3C781D0
:101EC00009F10809079BDA0500F19080249B0D9920
:101ED00001330C44072B2594C9F80060C9F804109D
:101EE000249300F3E28109F10809079B590736D5CD
:101EF0000C9B089A9D1A002D31DD102D249B394F23
:101F000022DD22461026DDF828B0099C04E0103DB1
:101F1000102D09F1080916DD013332491032072B63
:101F20002592249389E84200F1DD23AA21465846F0
:101F300002F0EEFC002847D1103D102D0DF1C00934
:101F4000259A249BE8DC144601332C44072B259466
:101F50002493C9F80070C9F8045000F392840B9BD5
:101F60000C9A08998A42ACBF9B185B180B93002C03
:101F700040F05981002324930DF1C0090DE600279C
:101F8000BB458DF86F70C0F20E85079B23F0800370
:101F90000793BBF1000F00F06C840024002500279C
:101FA000C6E623AA09990A9802F0B2FC60B99DF826
:101FB0006F700DF1C009259C27E7259B23B10A9876
:101FC00023AA099902F0A4FC099B9B8913F0400FF6
:101FD0000B9B18BF4FF0FF33184641B0BDE8F08FA0
:101FE000B86B0000D86B0000846B0000119B652B60
:101FF00040F39F80149815990022002303F08CF978
:10200000002800F06381249BAE4901330134012292
:10201000072B2594249389E8060000F3538409F1E3
:1020200008091D9B129A934203DB079BDB077FF590
:102030005CAF249B16990133179A0C44072B259407
:10204000C9F80020C9F80410249300F3E58609F1CB
:102050000809129B5D1E002D7FF747AF9A4A102D8D
:10206000249B0F9240F3178110260A9FDDF824B0BD
:1020700005E009F10809103D102D40F30C810133F2
:102080001034072B25942493C9F800A0C9F80460E4
:10209000EFDD23AA5946384602F03AFC002893D1D6
:1020A0000DF1C009259C249BE5E70C9B089A9F1A1B
:1020B000002F7FF7CEAE844A102F249B0F922BDD8A
:1020C0004A462146B946102537460A9C099E06E035
:1020D000A9F11009B9F1100F02F1080218DD01335E
:1020E0001031072B25912493C2F800A05560EFDD35
:1020F00023AA3146204602F00BFC00287FF464AF8F
:10210000A9F11009B9F1100F30AA2599249BE6DC3A
:102110003E460C464F46914601330F9A3C44072BEE
:102120002594249389E8840000F32B8509F108099C
:102130008FE6129B249D012B04F1010405F101059A
:1021400040F3E8840123072D2594C9F80060249505
:10215000C9F8043000F3F98409F10809169A013529
:10216000179B1444072D25942495C9F80030C9F80D
:10217000042000F3F88409F1080900231498159944
:10218000002203F0C9F8129B002800F0EA805E1ECE
:10219000002E40F3F5804C4B102E0F932CDDCDF824
:1021A00034801027B046DDF828B0099E06E0A8F17B
:1021B0001008B8F1100F09F108091ADD01351034C3
:1021C000072D25942495C9F800A0C9F80470EEDD08
:1021D00023AA3146584602F09BFB00287FF4F4AE58
:1021E000A8F11008B8F1100F0DF1C009259C249D2D
:1021F000E4DC4646DDF8348001350F9B3444072D7E
:102200002594249589E8480040F3B88023AA0999C9
:102210000A9802F07DFB00287FF4D6AE259C249D11
:102220000DF1C009ACE023AA09990A9802F070FBED
:1022300000283FF49FAEC7E623AA09990A9802F046
:1022400067FB00287FF4C0AE0DF1C009C4E423AAE7
:1022500009990A9802F05CFB00287FF4B5AE0DF1F5
:10226000C009259C2EE623AA09990A9802F050FB82
:1022700000287FF4A9AE0DF1C009259CD5E523AA5D
:1022800009990A9802F044FB00287FF49DAE0DF1F5
:10229000C009259CD9E501330F9A2C44072B2594BE
:1022A000249389E824007FF71EAE23AA09990A988F
:1022B00002F02EFB00287FF487AE259C0DF1C009AB
:1022C00013E600BFD46B0000846B00001D9D002D41
:1022D00040F30E83139B129A9342A8BF1346002B20
:1022E0001D460DDD249B2C440133072B2594C9F892
:1022F0000060C9F80450249300F31A8609F1080914
:10230000139B002DA8BF5B1B002B1D4640F3A08331
:10231000B94A102D249B0F9240F344852246102782
:10232000DDF828B0099C05E009F10809103D102DE1
:1023300040F3378501331032072B25922493C9F8D7
:1023400000A0C9F80470EFDD23AA2146584602F028
:10235000DFFA00287FF438AE0DF1C009259A249BDE
:10236000E4E7013B013501361C44072DC9F8006044
:1023700024952594C9F804303FF748AF09F10809BE
:10238000199A013514441FAB072D25942495C9F8DB
:102390000420C9F800307FF7A6AD23AA09990A984E
:1023A00002F0B6FA00287FF40FAE0DF1C009259CAB
:1023B0009BE598F8003008F101042A2B00F02E87E5
:1023C000A3F13000092898BF002500F2B28614F866
:1023D000013B05EB850500EB4505A3F1300009281D
:1023E000F5D945EAE575A0460CE4079B43F0800368
:1023F000079398F8003003E498F8003000297FF440
:10240000FFAB01222021FFF7FBBB079B43F0010339
:10241000079398F80030FFF7F3BB98F800300122DB
:102420002B21FFF7EDBB079B43F02003079398F8A0
:102430000030FFF7E5BB0E9AAB46166800251193F6
:102440008DF86F50141D002E00F0F885BBF1000FC1
:10245000C0F244855A4629463046FFF78BF80028DB
:1024600000F02E86AB46831B0D9323EAE3730E9494
:102470000893CDF84CB09DF86F7072E41193AB46A1
:10248000002A40F0F386079A12F0200300F04381FF
:102490000E9C0027073424F0070303F10801BB4515
:1024A0000E91D3E900458DF86F70C0F2C18222F021
:1024B0008003079354EA050300F04881002D08BF0C
:1024C0000A2CC0F0488130AE204629460A2200235B
:1024D00003F008F9303206F8012D20462946002382
:1024E0000A2203F0FFF804460D4654EA0503EBD137
:1024F0002DE41193AB46002A40F0B486079B3F4879
:102500009D0640F15D810E9C073424F0070303F122
:1025100008020E92D3E90045079A12F0010700F075
:10252000468254EA05033FF42AAD9DF84420002773
:102530008DF87120079A3023BB458DF870308DF8E7
:102540006F7042F00203C0F2A58522F0800343F0D1
:1025500002030793FFF7ECBB98F800306C2B00F0F8
:102560005184079840F010000790FFF749BB119382
:10257000AB46002A40F07E86079A12F0200300F056
:10258000A0800E9C0027073424F0070303F1080104
:10259000BB450E91D3E900458DF86F700BDB22F03F
:1025A0008003079354EA050306D1BBF1000F00F046
:1025B000B18500240025002730AEE20842EA4572CA
:1025C000E90804F007030D461446303354EA0502C7
:1025D00006F8013DF1D1079AD1077FF5B8AB302B52
:1025E0003FF4B5AB3022731E06F8012C30AAD21A84
:1025F0000D921E46FFF7AEBB846B0000B86B000067
:102600001193AB46002A40F02186079B0E9C1A07C7
:1026100004F1070440F16C8324F0070303F108027E
:102620000E921A685B6814921593159B149D23F003
:102630000044284621464FF0FF32A94B02F09EFE8F
:10264000002840F0CD82284621464FF0FF32A44BAF
:1026500002F076FE002840F0C382149815990022FB
:10266000002302F063FE002840F00E859DF86F7095
:1026700007999C4E21F080019B4B079111990322F1
:102680004FF0000B08924729D8BF1E460D92CDF897
:102690004CB0FFF766BB079B43F00803079398F81D
:1026A0000030FFF7ADBA1193AB46002A40F0D68553
:1026B000079B43F010030793079A12F020037FF45F
:1026C00060AF079911F0100200F068820E98BBF11C
:1026D000000F024604688DF86F3002F104024FF0DB
:1026E0000005C0F2DD8421F08001079154EA050164
:1026F0000E923FF45AAF1F465EE71193AB46002A95
:1027000040F0A885079B43F010030793079A12F047
:1027100020037FF4BDAE079911F0100200F025836D
:102720000E98BBF1000F024604688DF86F3002F17D
:1027300004024FF00005C0F2A48421F0800107914B
:1027400054EA05010E921F467FF4B8AEBBF1000FAC
:1027500000F09080002440AE303406F8414DFFF781
:10276000F6BA002A40F09E85079B9B0640F1CA827C
:102770000E9A134604330E930B9B1168DD171A460D
:102780002B46C1E90023FFF708BAA3F1300000236C
:102790001C4618F8013B04EB840400EB4404A3F14D
:1027A00030000928F5D90C94FFF72CBA1193AB46E9
:1027B000002A40F07385079B4C489D063FF5A3AE69
:1027C000079BDC0640F1B5820E9A002513460433C0
:1027D00014680E93A0E61193AB46002A40F05A8588
:1027E000079B43F010030793079B980640F1F18085
:1027F0000E9C073424F00704D4E9002304F10801F7
:102800001D4614460E91002A73F10003C0F2F280B7
:10281000BBF1000F9DF86F70C0F20A81079B23F097
:102820008003079354EA05037FF448AE8EE71193C3
:10283000AB46002AD8D08DF86F10D5E7079B43F040
:102840004003079398F80030FFF7DAB90E99119317
:102850000A68002301201F468DF86F309B461393B2
:102860000B1D08908DF898200E930D9026AEFFF763
:102870007CBA5F464FF0000BCDF834B030AEFFF7B6
:1028800069BA23AA09990A9802F042F800287FF44D
:102890009BAB259CFFF763BB1193002A40F0F684A5
:1028A000119A002A3FF489AB002301211F460891A9
:1028B0008DF898208DF86F309B4613930D9126AEBE
:1028C000FFF753BA23AA09990A9802F021F80028C1
:1028D0007FF47AAB0DF1C009259CFFF7A2BB00BFC6
:1028E000FFFFEF7F986B0000946B0000A46B00006B
:1028F000249BB849013301340122072B25942493EA
:1029000089E8060000F3C18209F108092DB9129B7C
:102910001BB9079BDF077FF5E8AA249B16990133B3
:10292000179A0C44072B2594C9F80020C9F8041005
:10293000249300F3028409F108096D42002D40F34D
:10294000E082A54A102D0F9240F300832246102703
:10295000DDF828B0099C05E009F10809103D102DAB
:1029600040F3F38201331032072B25922493C9F8E8
:1029700000A0C9F80470EFDD23AA2146584601F0F3
:10298000C7FF00287FF420AB0DF1C009259A249BD6
:10299000E4E792480791119354EA05030E924FF031
:1029A00000077FF4C5A900240025FFF7C1B9BBF1DA
:1029B000000F8DF86F70C0F2028222F0800307933F
:1029C00054EA05037FF4B4A9BBF1000F7FF4E5AA34
:1029D0004FE7079BD90640F1B9810E9A13461C6850
:1029E0000433E51722460E932B46002A73F10003A9
:1029F000BFF60EAF64424FF02D0765EB4505BBF106
:102A0000000F8DF86F70FFF659AD079B23F0800320
:102A1000079353E50E9ABBF1000F134614688DF827
:102A20006F7003F104034FF0000580F2CA810E932A
:102A300054EA05037FF442AD8DE623AA09990A986A
:102A400001F066FF00287FF4BFAA259C0DF1C009A4
:102A5000139A1D9B32441746129A934249DB079AF8
:102A6000D50746D412990E44F51BCB1A9D42A8BF38
:102A70001D46002D2E460DDD249A2C440132072AD6
:102A80002594C9F80070C9F80450249200F3C78255
:102A900009F10809002EB4BF1D469D1B002D7FF7CC
:102AA00024AA4D4A102D249B0F927FF7F4AB1026D9
:102AB0000A9FDDF824B005E009F10809103D102D4A
:102AC0007FF7E9AB01331034072B25942493C9F821
:102AD00000A0C9F80460EFDD23AA5946384601F08A
:102AE00017FF00287FF470AA0DF1C009259C249BD4
:102AF000E4E7249A1698013217990444072A25948A
:102B0000C9F80010C9F80400249200F37B8209F18F
:102B10000809A7E7079BD8073FF514AB0123072D4A
:102B20002594C9F800602495C9F804307FF726ACD5
:102B300023AA09990A9801F0EBFE00287FF444AA21
:102B40000DF1C009259C249D1AE423AA09990A982D
:102B500001F0DEFE00287FF437AA0DF1C009259CA4
:102B6000249DFFF7FBBA23AA09990A9801F0D0FE29
:102B700000287FF429AA0DF1C009259C249DFFF7A8
:102B8000FCBA23AA09990A9801F0C2FE00287FF432
:102B90001BAA0DF1C009259CFFF75BB9079911F03D
:102BA000400700F018810E98BBF1000F03468DF826
:102BB0006F2003F1040304884FF00005C0F2728116
:102BC00021F08001079154EA05010E933FF4EDAC2A
:102BD0001746F1E4D46B0000846B0000B86B000072
:102BE000149C22462046159C2346214602F0C6FB33
:102BF000002840F0C482119BBBF1FF3F23F020036B
:102C00000D9300F04A82472B00F04F81079B43F45D
:102C100080731093159B1F1E149B0893B7BF3B46F0
:102C2000002303F100472D230F93119B662B00F027
:102C30001482462B00F00C810D9B21A8452B18BF58
:102C40005D461EA908BF0BF10105049003911DA864
:102C500002213B460290089A019500910A9800F0E3
:102C60001BFC119B0646672B40F03682079BDA0758
:102C700040F172827419089839460022002302F04C
:102C80004BFB002840F05281219B9C4206D9302109
:102C90005A1C21921970219B9C42F9D89B1B1293BC
:102CA0000D9B472B00F03B81119B652B40F323824A
:102CB000119B662B1D9B139300F01F82139A129990
:102CC0008A42C0F2F081079BD90700F1478222EACD
:102CD000E2730D92672211920F9A002A40F0F4805D
:102CE0000893109B934607939DF86F70FFF739B8D0
:102CF00024F00704236814936368159304F1080310
:102D00000E9392E4079BDF060BD4079B5E0608D563
:102D10000E9A136804320E92BDF82C201A80FEF72A
:102D20003CBF0E9A136804320E920B9A1A60FEF79B
:102D300034BF079B0E9A13F0400F134600F0BE807D
:102D40000433148800250E93FFF7E6BB079B0E9A09
:102D500013F0400F13463FF442AEB2F90040043383
:102D6000E5170E9322462B464DE5079911F04007D3
:102D70003FF450AE0E98BBF1000F03468DF86F2064
:102D800003F1040304884FF00005C0F2948021F0A1
:102D90008001079154EA05010E9317467FF48EAB2C
:102DA000D4E4144601330F9A2C44072B2594249322
:102DB00089E824003FF741AE09F1080948E60E9A78
:102DC000EAE5079A0E9322F08002079254EA050280
:102DD0007FF474ABBAE40E9ABBF1000F134614688B
:102DE0008DF86F7003F104034FF000055ADB079A6A
:102DF0000E9322F08002079254EA05027FF4DCABC6
:102E0000FFF7D3BB079B08F1010843F020030793AA
:102E100098F80030FEF7F4BE23AA09990A9801F049
:102E200077FD00287FF4D0A80DF1C009259CFFF79D
:102E300010B940210A9802F0E5FD099A106010616E
:102E4000002800F0F981099A40235361FEF795BEEE
:102E500021A81EA9049003911DA803210290089A9D
:102E60003B46CDF804B000910A9800F015FB5D4692
:102E70000646119B7419462B7FF4FDAE3378302B38
:102E800000F092811D9D2C44F5E623AA09990A9829
:102E900001F03EFD00287FF497A80DF1C0091D9DAB
:102EA000259C33E50E93FFF786BBBBF1000F08BFEF
:102EB0004FF0010BAAE60E931746B9E504331468E8
:102EC00000250E93FFF728BB0893109B2D2707932F
:102ED0008DF86F704FF0000BFEF744BF3046FEF7E1
:102EE00097FCAB460346FFF7BFBA23AA09990A9895
:102EF00001F00EFD00287FF467A8259C249B0DF1AE
:102F0000C009129901330C44072B25942493C9F866
:102F10000060C9F804107EF7E6AFFFF7C6B91D9B45
:102F2000DD1C1FDB9B451DDB1393C7E62346B5E67F
:102F300023AA09990A9801F0EBFC00287FF444A821
:102F40000DF1C009259CFFF7DBB9144601330F9A38
:102F50002C44072B2594249389E82400C5DC09F12F
:102F60000809CEE7119A023A1192013B9DF84420DC
:102F7000002B1D93B8BF5B428DF87C20B4BF2D227F
:102F80002B22092B8DF87D2040F3F1800DF18B0071
:102F90000446BA4A82FB0321DA17C2EBA10101EB16
:102FA0008102A3EB4202303209290B4604F8012DBD
:102FB000EFDC21463033DAB201F8012D884240F2CD
:102FC00042810DF17E01234601E013F8012B984266
:102FD00001F8012BF9D1431C1B1B0DF17E02134498
:102FE0001FAA9B1A129A1993012A13440D9340F3B6
:102FF000FA800D9B169A134400220D93139223EA34
:10300000E37369E623AA09990A9801F081FC002874
:103010007EF4DAAF0DF1C0091D9B259C22E523AAA1
:1030200009990A9801F074FC00287EF4CDAF1D9B2D
:10303000129A259CD31A0DF1C0092BE55B46062B8D
:1030400028BF06230D9323EAE373B346374613964E
:103050000E9408938A4EFEF784BE21A81EA9049000
:1030600003911DA803210290089A3B46CDF804B0B5
:1030700000910A9800F010FA5D46064600EB0B043A
:10308000FCE60E921F46D3E42D231F468DF86F30C9
:10309000FFF7EEBA0793FEF74BBE4FF0060BB5E510
:1030A0000E92FFF788BA169A129B1344139A0D9347
:1030B000002A40F39080672223EAE37311920BE623
:1030C0002BEAEB73CDF834B0089383460E9413903B
:1030D0009DF86F70FEF745BE119B472B7FF4CAAD7C
:1030E000079BDB073FF5C5AE219B9B1B12930D9BF6
:1030F000472B3FF414AF1D9B37E7002B7DDDBBF161
:10310000000F5FD1079AD4075CD41A4623EAE37311
:103110000D92E1E5079B5F46DB0705D540AE302306
:1031200006F8413DFEF713BECDF834B030AEFEF7E1
:1031300011BEA0460025FEF765BD23AA09990A988D
:1031400001F0E6FB00287EF43FAF0DF1C0091D9DA4
:10315000259C249BFFF7F1BB219B9FE5169A139BAF
:10316000134467220D93119223EAE373B4E53033DD
:1031700030228DF87F308DF87E2020AB30E7079924
:10318000404E21F08001404B0791119903224FF0EE
:10319000000B08924729D8BF1E460D92CDF84CB0BF
:1031A0009DF86F70FEF7DDBD0898394600220023B8
:1031B00002F0B2F800287FF465AEC5F101051D9557
:1031C0002C4458E5139B169A9D1805EB0B030D93A1
:1031D00023EAE37380E5139B0D9AC3F101031A44BC
:1031E00013460D9267E7079B13F001037FF401AFCD
:1031F00013930D9B23EAE3736EE5BBF1000F02D13D
:10320000079BD80707D5169B5D1C05EB0B030D9399
:1032100023EAE37360E501230D935DE50E9898F8CA
:10322000013005680430002D0E90A046BEF6E8ACD3
:103230004FF0FF35FEF7E4BC0A9A0C2313604FF001
:10324000FF30FEF7CABE0DF17E03C9E68DF86F10A0
:10325000FFF7DBB98DF86F10FFF754BA8DF86F10D8
:10326000FFF726BA8DF86F10FFF748B98DF86F1089
:10327000FFF709B98DF86F10FFF77EB967666666CC
:10328000CC6B0000A06B00009C6B00008DF86F10F1
:10329000FFF706BB8DF86F10FFF7A2BA8DF86F101D
:1032A000FFF789BA8DF86F10FFF75EBA21B1FF2AD8
:1032B00004D80A7001207047084670478A230360CB
:1032C0004FF0FF30704700BF2DE9F047254C064610
:1032D00025688846D5F8484192469946C4B3606847
:1032E0001F2817DC411C76B104EB8003C3F888A0CB
:1032F000D4F88851012282401543022EC4F8885127
:10330000C3F808911ED0831C6160002044F823801C
:10331000BDE8F087144B03B34FF4C870FEF71AF9F9
:103320000446D0B1D5F84831002784E888003846F3
:10333000C5F848410121C4F88871C4F88C71002E89
:10334000E1D0D1E7D4F88C311A43C4F88C21DAE704
:1033500005F5A674C5F84841C1E74FF0FF30BDE858
:10336000F08700BF706B0000551500002DE9F04F8D
:1033700003690F6983B09F4200F38980013F01F127
:10338000140600F1140A56F827305AF827200133A2
:10339000B2FBF3F8BB00009306EB0309534401931F
:1033A000B8F1000F3BD000231C46B446D6465CF86B
:1033B00004BBDEF800501FFA8BF208FB02324FEA22
:1033C0001B4B130C08FB0B3392B2A41A1FFA83FB9E
:1033D000AAB22244CBEB154404EB224492B242EA57
:1033E0000442E1454EF8042B4FEA24444FEA1343CC
:1033F000DDD2009B5AF803308BB9019C231F9A45FC
:103400000CD254F8043C4BB9A4F1080302E01A684A
:10341000043B1AB99A4507F1FF37F8D30761044610
:1034200001F06EF900282EDB00235546194608F1FD
:10343000010856F8042B2B6890B2081A120C99B2A6
:10344000C2EB1343421803EB224392B242EA034217
:10345000B14545F8042B4FEA2341EAD25AF8272018
:103460000AEB87037AB91A1F92450BD253F8042C42
:1034700042B9083B02E01A68043B1AB99A4507F1C1
:10348000FF37F8D32761404603B0BDE8F08F002036
:1034900003B0BDE8F08F00BF2DE9F04F016C99B08B
:1034A000814692469B46259C49B1426C012393403C
:1034B0008B604A6000F03EFF0023C9F84030BBF14A
:1034C000000FD84633DB00232360A34B1A4608EADB
:1034D0000303934214D0002200235046594601F0C2
:1034E0001BFF054648B3249A01231360269B002B3B
:1034F00000F0C58099481860013819B0BDE8F08F18
:1035000042F20F73249A1360BAF1000F00F0A28008
:103510009348269B002BF0D0C378002B00F0B1809D
:1035200000F10803269A136019B0BDE8F08F01235B
:103530002BF000482360C346C7E716AA17AB0192D9
:10354000009352465B46484601F08EF95FEA1854F4
:10355000099040F08880169D179C2C4404F2324359
:10356000202B40F38A82C3F1400304F2124008FA90
:1035700003F82AFA00F040EA080001F0EFFB01230B
:10358000013CA1F1F8710F930022764B01F0A8FAEB
:103590006BA3D3E9002301F057FC6BA3D3E900230D
:1035A00001F0A0FA064620460F4601F0E7FB68A3AB
:1035B000D3E9002301F048FC02460B463046394669
:1035C00001F090FA06460F4601F0EEFE002203904D
:1035D00000233046394601F0A9FE002840F0298238
:1035E000039E162E00F222825F49524601EBC6016D
:1035F0005B46D1E9000101F0B7FE002800F04282ED
:10360000731E039300230D932C1B631E049300F180
:103610002B8200230693039B002BC0F21C82049A8A
:103620000C9311461944002304910B93229B092B00
:1036300029D8052B40F35286043B22930025229B78
:10364000023B032B00F22F86DFE813F02703200252
:1036500032035304424B454AC8F31300002814BFF9
:103660001846104655E7CBF3130343F07F510F95EF
:103670005046A4F2FF3441F44011169D84E73C48C3
:103680003BE7C31C4EE70021C9F84410484622918D
:1036900000F028FE4FF0FF33229A07930E93012388
:1036A00008902392C9F840000A93179B002BC0F2A0
:1036B000CA80039A0E2A00F3C6802B4B03EBC20389
:1036C00018CBCDE90434239B002BC0F2FC82564674
:1036D0005F46DDE904AB304652465B46394601F0B1
:1036E000DDFC01F061FE044601F048FB52465B46FA
:1036F00001F0AAFB02460B463046394601F0F0F9CC
:10370000079E089F04F13005012E3D7002460B46CE
:1037100007F101055ED00022164B01F095FB002257
:10372000002306460F4601F0F7FD002878D1CDF8BA
:103730001890DDF81CA0DDF820B0DDE9048928E050
:1037400061436F63A787D23FB3C8608B288AC63FA7
:10375000FB799F501344D33F0000F07FD56B0000EE
:10376000F86C00000000F83F006D0000EC6C0000F9
:10377000D46B0000000024400022C34B01F064FB26
:103780000022002306460F4601F0C6FD002840F047
:10379000B38342464B463046394601F07FFC01F088
:1037A00003FE044601F0EAFA42464B4601F04CFBA8
:1037B00002460B463046394601F092F904F13006D4
:1037C00005F8016BCBEB0506564502460B46D3D1F7
:1037D000DDF818901046194601F084F906460F46A8
:1037E00002460B46DDE9040101F0A0FD40B9DDE928
:1037F000040132463B4601F08FFD88B1E3070FD547
:1038000015F8014C6B1E089A04E09A4200F02C84D3
:1038100013F8014D392C03F10105F6D001341C7069
:103820000999484600F086FD0022039B2A70249ADD
:1038300001331360269B002B00F0A88308981D60BD
:1038400019B0BDE8F08F0A9A002A00F01281229A7E
:10385000012A40F35A82079B0B9A5F1EBA42C0F2BC
:103860009883D71B079B002BC0F28C84069D079B77
:10387000069A01211A440692049A48461A44049270
:1038800000F0F0FD064665B1049900290B4608DDFD
:10389000A942A8BF2B46069AED1AD21ACB1A069255
:1038A00004930B9B002B40F3FD820A9A002A00F040
:1038B0000382002F00F0008231463A46484600F06D
:1038C00079FEDDF82480014642460646484600F06F
:1038D000D3FD41460446484600F02CFD0B9BDB1B04
:1038E0000B9340F0E8810121484600F0BBFD0C9BA2
:1038F0008046002B00F01B8201461A46484600F025
:1039000059FE229B8046012B40F3F9820027D8F80C
:10391000103008EB8303186900F056FDC0F1200059
:10392000049A104410F01F0000F0F881C0F1200349
:10393000042B40F3CB84069BC0F11C000344069388
:103940001346034405440493069B002B05DD2146E2
:103950001A46484600F07EFE0446049B002B05DD17
:1039600041461A46484600F075FE80460D9B002BE6
:1039700040F07D82079B002B40F396820A9B002B30
:1039800040F0F681DDF820A0079F554604E021466F
:10399000484600F0D9FC044641462046FFF7E6FCC5
:1039A000303005F8010BCAEB0503BB424FF00A02A9
:1039B0004FF00003EBDB089B079A8246012AACBF5D
:1039C0009B1801331D464FF0000B2146012248464B
:1039D00000F040FE4146099000F092FE002840F3BE
:1039E0000E8315F8012C6B1E089904E08B4200F041
:1039F000798213F8012D392A03F10105F6D001323D
:103A00001A704146484600F095FC002E3FF408AF7E
:103A1000BBF1000F05D0B34503D05946484600F02E
:103A200089FC3146484600F085FCF9E601230D93F8
:103A3000EAE5DDF80C80404601F0A0F902460B46AD
:103A40003046394601F068FC00287FF4C9AD08F122
:103A5000FF330393C4E5069A039BD21A5B420B9390
:103A6000002306920C93E1E55B4206930023049346
:103A7000D1E50B9F069D0A9E05E7C3F120080AFACF
:103A800008F07AE50D90BFE50000244000230A937A
:103A9000039B239A13440E930133002B079340F3A7
:103AA0008582079C26460021172EC9F844100BD9A1
:103AB000012204235B0003F11400B042114602F11D
:103AC0000102F7D9C9F84410484600F00BFC0E2C4F
:103AD0000890C9F840003FF6E8AD002D3FF4E5AD91
:103AE0005746D8460399CDE91078002940F39382D0
:103AF000924B01F00F020E1103EBC203F006D3E963
:103B0000004540F14E828E4B5046D3E9082359467A
:103B100001F0C4FA82468B4606F00F064FF0030808
:103B200086B1874FF10709D5D7E9002320462946FA
:103B300001F08AF904460D4608F10108761007F1F4
:103B40000807EFD122462B465046594601F0A6FA07
:103B500006460F460D9B43B100227A4B304639464C
:103B600001F0E4FB002840F02383404601F006F911
:103B700032463B4601F068F9734B002200F0B2FF79
:103B8000079B0446A1F15075002B00F0E181039BD7
:103B90001393079B12930A9B002B00F09882129AB2
:103BA000664B002003EBC20353E90223674901F08F
:103BB00075FA22462B4600F093FF82468B4630462C
:103BC000394601F0F1FB044601F0D8F802460B46F5
:103BD0003046394600F084FF3034089DE4B2064692
:103BE0000F462C7002460B4650465946013501F0EF
:103BF000BBFB00284ED132463B460020514900F025
:103C00006FFF02460B465046594601F0ADFB0028B7
:103C100040F00E83129A012A40F3B481129B089A55
:103C2000134498460FE032463B460020454900F0D9
:103C300057FF52465B4601F079FB002840F0F882BE
:103C4000454500F09F81504659460022404B01F007
:103C5000FBF800223E4B82468B463046394601F047
:103C6000F3F80F46064601F09FFB044601F086F884
:103C700002460B463046394600F032FF3034E4B29B
:103C800005F8014B52465B4606460F4601F04EFBD7
:103C90000028C8D0139B0393C2E500230A93239BFB
:103CA000002B40F388811E461C460E930793FAE6CC
:103CB00001230A93F3E709940B9A0999484600F007
:103CC00079FC04460FE6079B002B3FF700AD40F060
:103CD000D982DDE9040100221E4B01F0B5F85246FD
:103CE0005B4601F037FBDDF81C804646002800F0FB
:103CF000F180239B089DDB4303934146484600F037
:103D000019FB002E3FF48CAD8BE60F9A002A00F0D1
:103D1000418203F233430B9F069DA9E51C20069BBD
:103D2000054403440693049B034404930CE6229B3E
:103D3000012B40F381820C9F0120F1E5006D000012
:103D4000D86D00000000F03F00001C400000E03F84
:103D50000000244000001440314600230A22484657
:103D600000F0F2FA0E9B0646002B40F39782079371
:103D7000002D05DD31462A46484600F06BFC06461C
:103D8000002F40F07B810696079B089A013BD318D1
:103D9000099317460AF00103C246DDF818B00A93EA
:103DA00051462046FFF7E2FA31460546204600F02C
:103DB000A7FC5A4604905146484600F0C1FCC26830
:103DC000804605F13003002A49D101462046079379
:103DD00000F096FC41460690484600F0ABFA069A81
:103DE000079B2AB9229919B90A99002900F036824D
:103DF00004990029C0F2E48005D1229919B90A99E1
:103E0000002900F0DD80002A00F34C81099A07F1B7
:103E1000010897423B70454600F05381214600233C
:103E20000A22484600F090FA5E45044631464FF0BB
:103E300000034FF00A0248460BD000F085FA5946BD
:103E4000064600230A22484600F07EFA474683468B
:103E5000A6E700F079FA474606468346A0E7014602
:103E60004846069300F066FA0122069BC0E74146E9
:103E7000204600F045FC0028BFF67CAD2146039C9F
:103E80000023013C0A224846039400F05DFA0A9B95
:103E90000446002B7FF460AF0E9B002B40F3F681AD
:103EA00007936FE5099C1EE5229B022B7FF766AD09
:103EB000079B002B40F07A8141460522484600F0DE
:103EC00043FA01468046204600F01AFC0028099477
:103ED0007FF70FAF039A08993123013203920B70D9
:103EE0004D1C0AE7039A312301320392089A13709A
:103EF00087E501230A93CBE5DDF8189090E4BAF149
:103F0000000F7FF403ADCBF31303002B40F040818F
:103F10002BF000473F0D3F0537B1069B01270133CA
:103F20000693049B013304930C9B0120002B3FF468
:103F3000F7ACECE4404600F021FF32463B4600F08F
:103F400083FF0022BF4B00F0CDFD0446A1F1507568
:103F5000304639460022BC4B00F0C2FD22462B46BB
:103F600006460F4601F000FA8046002840F0068120
:103F7000224605F100433046394601F0D7F908B131
:103F80004646B6E6DDE910ABFFF78FBB0898FFF7B2
:103F9000B4BA0B9B0C9AFB1A1A440B970C9200278D
:103FA00060E4DDE910AB4FF00208B9E51C460021E2
:103FB000C9F8441088E5012423940E940794F6E789
:103FC000002AD046CDF818B09A4611DD21460122CC
:103FD000484600F03FFB4146044600F091FB0028B4
:103FE00040F34981BAF1390F00F0078105F1310A38
:103FF000B34687F800A07D1C069E099401E504D114
:104000001AF0010F01D0ECE4154615F8013C6A1EC8
:10401000302BF9D0F5E4039B5C42002C00F0C1800A
:10402000DDE91001894B04F00F0203EBC203D3E971
:10403000002300F009FF241106460F4600F02B81F3
:10404000834D4FF00208E20709D5D5E90023304639
:10405000394600F0F9FE06460F4608F101086410E3
:1040600005F10805EFD175E5089930220A70039A29
:1040700015F8014C01320392FFF7D0BB7168484636
:1040800000F030F90546336906F10C019A1C9200E4
:104090000C30FDF7B5FA29460122484600F0DAFA5D
:1040A000069071E6392BCDF818B0D04600F0A58007
:1040B00003F1010AB34687F800A07D1C069E09940F
:1040C0009FE45A46D046B3469A4616467DE4129B74
:1040D0005E4903F1FF3A01EBCA012246D1E9000132
:1040E0002B4600F0B1FECDE914013946304601F00F
:1040F0005BF9044600F042FE0B4602463946304664
:1041000000F0EEFC129B0F4608993034012B064656
:104110000C7001F101051FD0129B089AA8461344A8
:104120009B4600224B4B3046394600F08DFE0F4631
:10413000064601F039F9044600F020FE02460B461F
:104140003046394600F0CCFC303408F8014BC3450A
:1041500006460F46E5D1554400223F4BDDE91401E8
:1041600000F0C0FC32463B4601F0E0F800284CD09D
:10417000139B039315F8014CFFF744BB4FF0000865
:104180004646A7E6069B079A9D1A0023FFF770BBD9
:104190000027C9E6169B0B9FC3F13603069DFFF768
:1041A00067BBDDE910674FF00208D3E40994A0E58E
:1041B000079B002B3FF4BEAE0E9B002B7FF7E2AEB9
:1041C0000022244B3046394600F03EFE06460F469C
:1041D00008F1010000F0D2FD32463B4600F034FE0B
:1041E0000022184B00F07EFC039A0E9B013A044615
:1041F0001392A1F150751293CDE43922B34609947C
:10420000069E3A707D1CFFF7EEBBDDE9142300200B
:10421000114900F065FC32463B4601F0A5F808B9AB
:10422000B0E6154615F8013C6A1E302BF9D031E591
:10423000139B0393FFF7E6BABAF1000F7FF47BAD4F
:1042400061E600BF00001C4000001440006D00004B
:10425000D86D0000000024400000E03F392BCDF86D
:1042600018B0D046DDF810B09A46C6D0BBF1000FAA
:104270003FF7BCAEBCE67FF4BBAE1AF0010F3FF4D3
:10428000B7AEAFE64FF00008464632E5229B022B60
:1042900021DC0E9B04E64FF002085BE4229B022B1C
:1042A00019DC0E9B63E50024C9F8444021464846CA
:1042B00000F018F84FF0FF3307930E930123089096
:1042C0002394C9F840000A93FFF7EFB93FF43CABE1
:1042D000C0F13C0023E50E9B0793E9E50125FFF7BC
:1042E000AEB900BFC26C70B505460C4652B152F86B
:1042F00024308BB1196842F82410002218461A6144
:10430000DA6070BD2122042101F082FBE8640246DC
:104310000028ECD1002070BD012101FA04F6721DC5
:104320002846920001F074FB03460028F2D0446056
:104330008660E2E731B1C36C4A6853F82200086036
:1043400043F82210704700BFF0B50C4605460E69D1
:1043500083B001F1140E0027DEF80000013781B2AE
:1043600002FB0131000C0B0C02FB003389B201EBA4
:104370000341BE424EF8041B4FEA1343ECDC3BB151
:10438000A268964207DA04EB860201365361266181
:10439000204603B0F0BD6168284601310193FFF764
:1043A000A1FF0746226904F10C01023292000C3091
:1043B000FDF726F9EA6C6168019B52F82100206044
:1043C00042F821403C46DEE7030C1B04B3B900046D
:1043D000102310F07F4F04BF0002083310F0704F1D
:1043E00004BF0001043310F0404F04BF80000233CB
:1043F000002807DB420003D4202070470023E8E7B1
:10440000581C704718467047036813F0070207D01E
:10441000D90720D49A0720D49B0803600220704754
:1044200099B209B91B0C102213F0FF0F04BF1B0A2D
:104430000832190704BF1B090432990704BF9B08FF
:104440000232D90704D45B0801D120207047013221
:10445000036010467047002070475B08036001202E
:10446000704700BF10B50C460121FFF73BFF01224A
:104470004461026110BD00BF2DE9F04F0D6916695E
:1044800085B0B5420C46914604DA2A464C4635467C
:1044900089461646A36805EB060861689845C8BFBB
:1044A0000131FFF71FFF00F1140A0AEB880BDA4510
:1044B000019005D25346002143F8041B9B45FBD8CD
:1044C00009F1140909EB860304F11402994502EB82
:1044D000850C59D2CDF808B0CDF80C809B4690469B
:1044E00059F8047B1FFA87FEBEF1000F1FD0474624
:1044F0005646002100E00646304657F8045B346813
:10450000ABB2A2B20EFB03222D0C240C0EFB054411
:10451000531804EB13419AB242EA0142BC454FEAF8
:10452000114140F8042BE6D8716059F8047C3F0C27
:1045300022D0DAF80030002255461E464046964604
:1045400000E025462C460288360C07FB026699B22D
:1045500006EB0E0241EA024344F8043B50F8041B08
:104560006E68090CB3B207FB0131844501EB1243BD
:104570004FEA134EE5D86B60CB450AF1040AAFD879
:10458000DDF808B0DDF80C80B8F1000F0BDD5BF84A
:10459000043CABF1040B1BB105E05BF8043D13B91F
:1045A000B8F10108F9D10198C0F8108005B0BDE854
:1045B000F08F00BF12F003032DE9F04114460746C7
:1045C0002ED10E46A4101CD0BD6C95B3E3074FF05E
:1045D000000806D4641014D02868A8B10546E30783
:1045E000F8D52A4631463846FFF746FFB6B172681D
:1045F000FB6C641053F82210316043F822600646C9
:10460000EAD13046BDE8F0812A4629463846FFF710
:1046100033FF2860C0F800800546E0E70646D9E78A
:104620000B4A013B52F823200023FFF78DFE06467C
:10463000C8E701213846FFF755FE40F271210122FB
:104640000023416102610546B8640360BEE700BF14
:10465000C86D00002DE9F84F0B69541104EB0308F5
:104660008B6808F101059D420E46914683464968D4
:1046700004DD5B009D4201F10101FADC5846FFF7C1
:1046800031FE002C00F1140237DD02EB840300211F
:1046900042F8041B9342FBD1346906F1140119F06E
:1046A0001F0901EB840E20D0C9F1200C00240F68F3
:1046B0001A4607FA09FA4AEA040443F8044B51F887
:1046C000044B8E4524FA0CF4F1D854600CB108F177
:1046D0000205DBF84C307268013D53F82210056189
:1046E000316043F82260BDE8F88F043B51F8042B99
:1046F0008E4543F8042FF9D8EBE71346CCE700BF0B
:1047000002690B69D21A12D19B001430143119447A
:1047100010B4034401E098420BD253F8044D51F811
:10472000042D9442F7D007D3012010BC70471046E7
:104730007047002010BC70474FF0FF30F5E700BF16
:104740002DE9F0470B690C46116990465B1A002B66
:1047500018D1890004F1140602F1140773183944C2
:1047600001E09E4269D253F8045D51F8042D954250
:10477000F7D06BD22346B24644463E4698464FF0A9
:10478000010906E066DB04F1140602F1140A4FF099
:1047900000096168FFF7A6FD5546D4F810E0D8F887
:1047A00010303746C0F80C900AEB830C06EB8E06EF
:1047B00000F114044FF0000957F8042B55F8041BBE
:1047C0001FFA82F808EB09031FFA81F8090CC8EBFD
:1047D0000303C1EB124202EB23429BB243EA0243C2
:1047E000AC4544F8043B4FEA2249E5D8BE4218D90B
:1047F000A046BC465CF8042B95B205EB09010B14EE
:1048000003EB12428BB243EA0243664548F8043B8D
:104810004FEA2249EED8FF43374427F00307043715
:104820003C44043C2BB954F8043D0EF1FF3E002BF0
:10483000F9D0C0F810E0BDE8F0870021FFF752FD85
:104840000122002302614361BDE8F087BA464FF0C0
:1048500000099EE7234604F1140A08F114064446B1
:104860004FF00109984694E7F0B5012183B01C464A
:10487000C3F30A551646FFF735FDC4F31304074684
:104880000DB144F48014019406B302A840F8086DF9
:10489000FFF7BAFD002830D19DE80C007A61002BAB
:1048A0000CBF01210221BB613961D5B9089A07EB20
:1048B0008103A0F2324010601869FFF785FD099B63
:1048C000C0EB41101860384603B0F0BD01A8FFF7F7
:1048D0009BFD019B0122114620303A617B61002D36
:1048E000E4D0A5F23343089A03441360099BC0F156
:1048F00035001860384603B0F0BD019BC0F12001BF
:10490000009A03FA01F10A43C34001937A61C6E7B2
:104910002DE9F04F936883B09046002B72D04FF092
:1049200000090D464C468346166808688B68002CC3
:1049300045D09C421F469A4646D3AB8913F4906FEC
:104940002DD06F69296907EB4707C1EB000A07EB18
:10495000D777601C7F105044B8423A4684BF074660
:104960003A465B0533D51146584601F04BF800280E
:1049700037D0524629690190FCF742FEAA89019B73
:1049800022F4906242F08002AA81CAEB070203EB94
:104990000A006F61A24627462B612860AA60524632
:1049A000494600F035F8D8F80820AB682868DB1BCA
:1049B0005044141BAB602860C8F8084014B3D6F804
:1049C000009074680836B2E72746A246E7E75846E3
:1049D00001F01AF803460028D7D12969584601F09A
:1049E00015F80C23CBF80030AB89002243F04003CC
:1049F0004FF0FF30AB81C8F80820C8F8042003B09E
:104A0000BDE8F08F0020C8F8040003B0BDE8F08FC7
:104A10008842F0B50DD98B1898420AD28118002A25
:104A200051D09A1A13F8014D934201F8014DF9D172
:104A3000F0BD0F2A48D941EA00039B0746D115462D
:104A400000F1100401F1100353F8106C103D44F80C
:104A5000106C53F80C6C0F2D44F80C6C53F8086C68
:104A600004F1100444F8186C53F8046C03F11003BB
:104A700044F8146CE8D8A2F1100323F00F0302F0FD
:104A80000F0E1033BEF1030F1944034421D90E4613
:104A900074461D1F56F8047B043C032C45F8047F24
:104AA000F8D8AEF1040424F0030404342344214470
:104AB00002F0030262B1013B0A4411F8014B8A4241
:104AC00003F8014FF9D1F0BD0346F3E70346F2E7DF
:104AD000F0BD7246EEE700BF81F0004102E000BF8A
:104AE00083F0004330B54FEA41044FEA430594EAAE
:104AF000050F08BF90EA020F1FBF54EA000C55EAE9
:104B0000020C7FEA645C7FEA655C00F0E2804FEAB9
:104B10005454D4EB5555B8BF6D420CDD2C4480EA9B
:104B2000020281EA030382EA000083EA010180EACB
:104B3000020281EA0303362D88BF30BD11F0004F19
:104B40004FEA01314FF4801C4CEA113102D040424F
:104B500061EB410113F0004F4FEA03334CEA13338A
:104B600002D0524263EB430394EA050F00F0A780A2
:104B7000A4F10104D5F1200E0DDB02FA0EFC22FA9D
:104B800005F2801841F1000103FA0EF2801843FA91
:104B900005F359410EE0A5F120050EF1200E012A82
:104BA00003FA0EFC28BF4CF0020C43FA05F3C018C0
:104BB00051EBE37101F0004507D54FF0000EDCF139
:104BC000000C7EEB00006EEB0101B1F5801F1BD3E2
:104BD000B1F5001F0CD349085FEA30004FEA3C0CE6
:104BE00004F101044FEA445212F5800F80F09A80DC
:104BF000BCF1004F08BF5FEA500C50F1000041EBE0
:104C0000045141EA050130BD5FEA4C0C404141EBE3
:104C1000010111F4801FA4F10104E9D191F0000F0A
:104C200004BF01460020B1FA81F308BF2033A3F18D
:104C30000B03B3F120020CDA0C3208DD02F1140C84
:104C4000C2F10C0201FA0CF021FA02F10CE002F1BF
:104C50001402D8BFC2F1200C01FA02F120FA0CFCB8
:104C6000DCBF41EA0C019040E41AA2BF01EB045101
:104C7000294330BD6FEA04041F3C1CDA0C340EDCFF
:104C800004F11404C4F1200220FA04F001FA02F342
:104C900040EA030021FA04F345EA030130BDC4F100
:104CA0000C04C4F1200220FA02F001FA04F340EAF5
:104CB0000300294630BD21FA04F0294630BD94F0A6
:104CC000000F83F4801306BF81F480110134013D8D
:104CD0004EE77FEA645C18BF7FEA655C29D094EAFE
:104CE000050F08BF90EA020F05D054EA000C04BF7C
:104CF0001946104630BD91EA030F1EBF0021002067
:104D000030BD5FEA545C05D14000494128BF41F005
:104D1000004130BD14F580043CBF01F5801130BD69
:104D200001F0004545F0FE4141F470014FF00000F4
:104D300030BD7FEA645C1ABF194610467FEA655CA5
:104D40001CBF0B46024650EA013406BF52EA033547
:104D500091EA030F41F4002130BD00BF90F0000F35
:104D600004BF0021704730B54FF4806404F1320471
:104D70004FF000054FF0000150E700BF90F0000F2A
:104D800004BF0021704730B54FF4806404F1320451
:104D900010F0004548BF40424FF000013EE700BF21
:104DA00042004FEAE2014FEA31014FEA02701FBFB1
:104DB00012F07F4393F07F4F81F06051704792F083
:104DC000000F14BF93F07F4F704730B54FF46074FD
:104DD00001F0004521F0004120E700BF50EA010248
:104DE00008BF704730B54FF000050AE050EA0102F5
:104DF00008BF704730B511F0004502D5404261EB65
:104E000041014FF4806404F132045FEA915C3FF4A5
:104E1000DCAE4FF003025FEADC0C18BF03325FEA3E
:104E2000DC0C18BF033202EBDC02C2F1200300FAF3
:104E300003FC20FA02F001FA03FE40EA0E0021FA18
:104E400002F11444C1E600BF70B54FF0FF0C4CF402
:104E5000E06C1CEA11541DBF1CEA135594EA0C0FB8
:104E600095EA0C0F00F0DEF82C4481EA030621EAF3
:104E70004C5123EA4C5350EA013518BF52EA03352E
:104E800041F4801143F4801338D0A0FB02CE4FF0E0
:104E90000005E1FB02E506F00042E0FB03E54FF010
:104EA0000006E1FB03569CF0000F18BF4EF0010E08
:104EB000A4F1FF04B6F5007F64F5407404D25FEA04
:104EC0004E0E6D4146EB060642EAC62141EA5551B7
:104ED0004FEAC52040EA5E504FEACE2EB4F1FD0CF9
:104EE00088BFBCF5E06F1ED8BEF1004F08BF5FEA77
:104EF000500E50F1000041EB045170BD06F0004629
:104F000046EA010140EA020081EA0301B4EB5C04D5
:104F1000C2BFD4EB0C0541EA045170BD41F48011CD
:104F20004FF0000E013C00F3AB8014F1360FDEBFF2
:104F3000002001F0004170BDC4F10004203C35DACE
:104F40000C341BDC04F11404C4F1200500FA05F351
:104F500020FA04F001FA05F240EA020001F00042F2
:104F600021F0004110EBD37021FA04F642EB060168
:104F70005EEA430E08BF20EAD37070BDC4F10C0492
:104F8000C4F1200500FA04F320FA05F001FA04F256
:104F900040EA020001F0004110EBD37041F1000142
:104FA0005EEA430E08BF20EAD37070BDC4F120054D
:104FB00000FA05F24EEA020E20FA04F301FA05F2B5
:104FC00043EA020321FA04F001F0004121FA04F25D
:104FD00020EA020000EBD3705EEA430E08BF20EA2D
:104FE000D37070BD94F0000F0FD101F00046400067
:104FF00041EB010111F4801F08BF013CF7D041EAE9
:10500000060195F0000F18BF704703F000465200EC
:1050100043EB030313F4801F08BF013DF7D043EABD
:105020000603704794EA0C0F0CEA135518BF95EA73
:105030000C0F0CD050EA410618BF52EA4306D1D1FA
:1050400081EA030101F000414FF0000070BD50EA19
:10505000410606BF1046194652EA430619D094EAA3
:105060000C0F02D150EA013613D195EA0C0F05D18D
:1050700052EA03361CBF104619460AD181EA0301E1
:1050800001F0004141F0FE4141F470014FF0000099
:1050900070BD41F0FE4141F4780170BD70B54FF034
:1050A000FF0C4CF4E06C1CEA11541DBF1CEA1355B4
:1050B00094EA0C0F95EA0C0F00F0A7F8A4EB050496
:1050C00081EA030E52EA03354FEA013100F088808D
:1050D0004FEA03334FF0805545EA131343EA126356
:1050E0004FEA022245EA111545EA10654FEA00260B
:1050F0000EF000419D4208BF964244F1FD0404F5C4
:10510000407402D25B084FEA3202B61A65EB03051F
:105110005B084FEA32024FF480104FF4002CB6EBDC
:10512000020E75EB030E22BFB61A754640EA0C005C
:105130005B084FEA3202B6EB020E75EB030E22BF9C
:10514000B61A754640EA5C005B084FEA3202B6EBDD
:10515000020E75EB030E22BFB61A754640EA9C009C
:105160005B084FEA3202B6EB020E75EB030E22BF6C
:10517000B61A754640EADC0055EA060E18D04FEA2A
:10518000051545EA16754FEA06164FEAC30343EACA
:1051900052734FEAC2025FEA1C1CC0D111F4801F97
:1051A0000BD141EA00014FF000004FF0004CB6E790
:1051B00011F4801F04BF01430020B4F1FD0C88BF2F
:1051C000BCF5E06F3FF6AFAEB5EB030C04BFB6EB3A
:1051D000020C5FEA500C50F1000041EB045170BD2D
:1051E0000EF0004E4EEA113114EB5C04C2BFD4EB5A
:1051F0000C0541EA045170BD41F480114FF0000EDE
:10520000013C90E645EA060E8DE60CEA135594EA59
:105210000C0F08BF95EA0C0F3FF43BAF94EA0C0F5C
:105220000AD150EA01347FF434AF95EA0C0F7FF4D1
:1052300025AF104619462CE795EA0C0F06D152EA25
:1052400003353FF4FDAE1046194622E750EA410609
:1052500018BF52EA43067FF4C5AE50EA41047FF41A
:105260000DAF52EA43057FF4EBAE12E74FF0FF3C7F
:1052700006E000BF4FF0010C02E000BF4FF0010C50
:105280004DF804CD4FEA410C7FEA6C5C4FEA430CC9
:1052900018BF7FEA6C5C1BD001B050EA410C0CBF18
:1052A00052EA430C91EA030F02BF90EA020F00207A
:1052B000704710F1000F91EA030F58BF994208BFE1
:1052C00090422CBFD8176FEAE37040F0010070479E
:1052D0004FEA410C7FEA6C5C02D150EA013C07D1F5
:1052E0004FEA430C7FEA6C5CD6D152EA033CD3D040
:1052F0005DF8040B704700BF8446104662468C463A
:105300001946634600E000BF01B5FFF7B7FF00286C
:1053100048BF10F1000F01BD4DF808EDFFF7F4FF95
:105320000CBF012000205DF808FB00BF4DF808ED20
:10533000FFF7EAFF34BF012000205DF808FB00BF43
:105340004DF808EDFFF7E0FF94BF012000205DF865
:1053500008FB00BF4DF808EDFFF7CEFF94BF01201A
:1053600000205DF808FB00BF4DF808EDFFF7C4FF13
:1053700034BF012000205DF808FB00BF4FEA410C5C
:105380007FEA6C5C02D150EA013C0AD14FEA430C3F
:105390007FEA6C5C02D152EA033C02D14FF000007C
:1053A00070474FF0010070474FEA410212F50012BA
:1053B00015D211D56FF47873B3EB625212D94FEA5C
:1053C000C12343F0004343EA505311F0004F23FA46
:1053D00002F018BF404270474FF00000704750EA9B
:1053E000013005D111F0004008BF6FF00040704758
:1053F0004FF00000704700BF4FF0FF0C1CEAD05286
:105400001EBF1CEAD15392EA0C0F93EA0C0F6FD027
:105410001A4480EA010C400218BF5FEA41211ED005
:105420004FF0006343EA501043EA5111A0FB0131F1
:105430000CF00040B1F5000F3EBF490041EAD371C6
:105440005B0040EA010062F17F02FD2A1DD8B3F142
:10545000004F40EBC25008BF20F00100704790F0B1
:10546000000F0CF0004C08BF49024CEA502040EA03
:1054700051207F3AC2BFD2F1FF0340EAC2507047C9
:1054800040F400004FF00003013A5DDC12F1190F07
:10549000DCBF00F000407047C2F10002410021FA79
:1054A00002F1C2F1200200FA02FC5FEA310040F191
:1054B000000053EA4C0308BF20EADC70704792F00A
:1054C000000F00F0004C02BF400010F4000F013A42
:1054D000F9D040EA0C0093F0000F01F0004C02BF3D
:1054E000490011F4000F013BF9D041EA0C018FE7AC
:1054F0000CEAD15392EA0C0F18BF93EA0C0F0AD0B2
:1055000030F0004C18BF31F0004CD8D180EA0100D7
:1055100000F00040704790F0000F17BF90F0004F70
:10552000084691F0000F91F0004F14D092EA0C0F52
:1055300001D142020FD193EA0C0F03D14B0218BFE5
:10554000084608D180EA010000F0004040F0FE402B
:1055500040F40000704740F0FE4040F440007047C7
:105560004FF0FF0C1CEAD0521EBF1CEAD15392EA46
:105570000C0F93EA0C0F69D0A2EB030280EA010C36
:1055800049024FEA402037D04FF0805343EA1111CF
:1055900043EA10130CF000408B4238BF5B0042F12D
:1055A0007D024FF4000C8B4224BF5B1A40EA0C00D2
:1055B000B3EB510F24BFA3EB510340EA5C00B3EB04
:1055C000910F24BFA3EB910340EA9C00B3EBD10FF2
:1055D00024BFA3EBD10340EADC001B0118BF5FEA44
:1055E0001C1CE0D1FD2A3FF650AF8B4240EBC2506D
:1055F00008BF20F0010070470CF0004C4CEA50202E
:105600007F32C2BFD2F1FF0340EAC250704740F47C
:1056100000004FF00003013A37E792F0000F00F06E
:10562000004C02BF400010F4000F013AF9D040EAEC
:105630000C0093F0000F01F0004C02BF490011F480
:10564000000F013BF9D041EA0C0195E70CEAD15378
:1056500092EA0C0F08D142027FF47DAF93EA0C0F5F
:105660007FF470AF084676E793EA0C0F04D14B0243
:105670003FF44CAF08466EE730F0004C18BF31F0F5
:10568000004CCAD130F000427FF45CAF31F00043EF
:105690007FF43CAF5FE700BF4FEA4002B2F1FE4F3C
:1056A0000FD34FF09E03B3EB12620DD94FEA0023E4
:1056B00043F0004310F0004F23FA02F018BF4042BD
:1056C00070474FF00000704712F1610F01D14202A4
:1056D00005D110F0004008BF6FF0004070474FF058
:1056E0000000704753B94AB9002908BF00281CBF01
:1056F0004FF0FF314FF0FF3000F082B9ADF1080CF0
:105700006DE904CE00F006F8DDF804E0DDE90223DF
:1057100004B070472DE9F04F8C460C460546099EB3
:10572000002B4FD18A4217466BD9B2FA82FEBEF1E6
:10573000000F0BD0CEF1200520FA05F501FA0EF38B
:1057400045EA030C02FA0EF700FA0EF5390CBCFB21
:10575000F1F0BAB201FB10C300FB02F84FEA154C9E
:105760004CEA0344A04509D9E41900F1FF3380F065
:105770002881A04540F2258102383C44C8EB04044E
:10578000B4FBF1F301FB134C03FB02F2ACB244EAAD
:105790000C418A4209D9C91903F1FF3480F00F8105
:1057A0008A4240F20C81023B39448A1A43EA0040A3
:1057B0000021002E63D022FA0EF2002386E80C00AE
:1057C000BDE8F08F8B4207D9002E56D0002186E825
:1057D00011000846BDE8F08FB3FA83F1002940F0CC
:1057E0009380A34202D3824200F2FE80851A64EBCA
:1057F00003039C460120002E41D086E82010BDE81E
:10580000F08F12B90127B7FBF2F7B7FA87FEBEF1A6
:10581000000F36D1E41B4FEA17481FFA87F9012120
:10582000B4FBF8F308FB134409FB03F24FEA154CF1
:105830004CEA0444A24207D9E41903F1FF3002D232
:10584000A24200F2D3800346A41AB4FBF8F008FB8E
:10585000104809FB00F9ACB244EA0842914507D967
:10586000D21900F1FF3402D2914500F2BA802046ED
:10587000C9EB020240EA03409BE731463046BDE8EF
:10588000F08F07FA0EF7CEF1200C24FA0CF34FEA52
:105890001748B3FBF8FA1FFA87F908FB1A3520FA04
:1058A0000CFC04FA0EF40AFB09FB4CEA040C4FEA68
:1058B0001C4242EA05439B4500FA0EF50AD9DB1962
:1058C0000AF1FF3280F08B809B4540F28880AAF17C
:1058D000020A3B44CBEB0303B3FBF8F008FB1033A5
:1058E00000FB09F41FFA8CFC4CEA03439C4207D9E5
:1058F000DB1900F1FF326ED29C426CD902383B4476
:105900001C1B40EA0A418BE7C1F1200E8B4022FAB2
:105910000EFC4CEA030C24FA0EF74FEA1C49B7FBC5
:10592000F9FA1FFA8CF309FB1A7720FA0EF88C406B
:105930000AFB03F548EA04044FEA144848EA07471B
:10594000BD4202FA01F200FA01FB09D917EB0C077C
:105950000AF1FF3041D2BD423FD9AAF1020A6744A1
:105960007F1BB7FBF9F509FB157705FB03F3A4B221
:1059700044EA0747BB4208D917EB0C0705F1FF3093
:1059800027D2BB4225D9023D674445EA0A40A0FB25
:105990000289FF1A4F4545464C4614D329D066B3B9
:1059A000BBEB050367EB040707FA0EFECB40CF40C5
:1059B0004EEA030386E888000021BDE8F08F234605
:1059C000F3E61846DAE6B8EB020569EB0C04013899
:1059D000E5E70546D9E7104692E78246C0E79246DA
:1059E00078E702383A4443E7084604E7023B3C4480
:1059F0002AE7C345E7D33C46D1E73146BDE8F08FFF
:105A0000704700BF00F06CB900F016BC00F080B821
:105A100000F000B810B502FB01F1FFF7F3FF0446F8
:105A2000D8B150F8042C22F00302043A242A18D8E2
:105A3000132A14D900231B2A0360436016D9242A91
:105A40008360C36011BF00F110020361436100F184
:105A500018020023136053609360204610BD024675
:105A6000F7E70021FBF742FE204610BD00F10802D7
:105A7000EFE700BFF8B50C46224F0646FAF752FD95
:105A8000BB685D6825F00305291B01F6EF7121F461
:105A90007F6121F00F01A1F58054B4F5805F07DB31
:105AA0000021304600F0B2FDBB682B44984204D080
:105AB0003046FAF73BFD0020F8BD6142304600F069
:105AC000A5FD01300DD0104BBA6819682D1B45F0AB
:105AD00001053046091B55601960FAF727FD0120C2
